:020000040800F2
:10000000181E0020390800086B4C0008DF4A000861
:10001000C54B0008CD490008E14F00080000000072
:100020000000000000000000000000007908000847
:10003000D14900080000000011090008210900084A
:100040005308000853080008530800085308000824
:100050005308000853080008530800085308000814
:100060005308000853080008530800085308000804
:1000700053080008530800085308000853080008F4
:1000800053080008530800085308000853080008E4
:1000900053080008530800085308000853080008D4
:1000A00053080008530800085308000853080008C4
:1000B00053080008530800085308000853080008B4
:1000C00053080008530800085308000853080008A4
:1000D0005308000853080008530800085308000894
:1000E0005308000853080008530800085308000884
:1000F0005308000853080008530800085308000874
:100100005308000853080008530800085308000863
:100110005308000853080008530800085308000853
:100120005308000853080008530800085308000843
:100130005308000853080008530800085308000833
:100140005308000853080008530800085308000823
:100150005308000853080008530800085308000813
:100160005308000853080008530800085308000803
:1001700053080008530800085308000853080008F3
:10018000530800085308000800F002F800F0B1F826
:100190000AA090E8000C82448344AAF10107DA45E2
:1001A00001D100F0A6F8AFF2090EBAE80F0013F083
:1001B000010F18BFFB1A43F001031847D8A5000030
:1001C000F8A500000A4410F8014B14F00F0508BF11
:1001D00010F8015B240908BF10F8014B6D1E05D013
:1001E00010F8013B6D1E01F8013BF9D1641E03D0EC
:1001F000641E01F8015BFBD19142E4D3704700001B
:100200000023002400250026103A28BF78C1FBD81F
:10021000520728BF30C148BF0B6070476E2900F0FD
:100220007387702901F0BD80662909F07086652901
:1002300009F06D86672909F06A86612909F06986E7
:1002400003681B0A28BF41F08001692900F020875C
:10025000642900F01D87752900F01A876F2901F0C5
:100260004A80782901F08980E92900F0E587E429AE
:1002700000F0E287F52900F0DF87EF2901F04780E1
:10028000F82901F088800368DB0928BF41F080016C
:10029000632902F0C782732902F0CC82E32902F0BD
:1002A000D782F32902F0DC82002070471FB509F0E5
:1002B00021FE9DE8030000F051FE01F049FE04001C
:1002C0000020002108F0FCF8401C606000200021A4
:1002D00008F00CF9E06001F091FC03F027FF1FBD6E
:1002E00010B5002003F02AF901F000FD03F084F9B5
:1002F00010BD00F0E3FD114603B406F06FF803BC37
:10030000FFF7D4FF06F07EF901F064FD03B4FFF7B8
:10031000E7FF03BC00F0C8FD0246D2E84F0FC2E879
:10032000431F03B1F9E77047024652E8000F40EA65
:10033000010042E8000303B1F7E7704710B5024639
:1003400052E8000F20EA010442E8004303B1F7E756
:1003500010BD10B5024652E8000F00EA01048C42BD
:1003600003D0BFF32F8F002010BD20EA010442E824
:10037000004303B1EFE710BD10B5024652E8000F8D
:10038000084203D1BFF32F8F002010BD20EA0104E3
:1003900042E8004303B1F1E710BD024652E8000F06
:1003A000411C42E8001303B1F8E7704710B502465C
:1003B000D2E85F0F814202D8BFF32F8F10BD441CDB
:1003C000C2E8534F03B1F3E710BD10B50246D2E8BF
:1003D0005F0F441CA14200D80024C2E8534F03B170
:1003E000F5E710BD024652E8000F411E42E8001337
:1003F00003B1F8E77047024652E8000F10B9BFF3A7
:100400002F8F7047411E42E8001303B1F4E7704795
:100410000246D2E85F0F10B9BFF32F8F7047411E1D
:10042000C2E8531F03B1F4E77047024652E8000FD9
:1004300010B9BFF32F8F7047016842E8001303B172
:10044000F4E7704702680A60BFF35F8F50E8002F3F
:100450000B689342F6D140E8001303B1F2E770470E
:100460000246D2E84F0FC2E8431F03B1F9E77047D5
:10047000024652E8000F40EA010042E8000303B1DF
:10048000F7E7704710B5024652E8000F20EA010472
:1004900042E8004303B1F7E710BD10B5024652E849
:1004A000000F00EA01048C4203D0BFF32F8F00201D
:1004B00010BD20EA010442E8004303B1EFE710BD9C
:1004C00010B5024652E8000F084203D1BFF32F8F48
:1004D000002010BD20EA010442E8004303B1F1E727
:1004E00010BD024652E8000F411C42E8001303B160
:1004F000F8E7704710B50246D2E85F0F814202D894
:10050000BFF32F8F10BD441CC2E8534F03B1F3E774
:1005100010BD10B50246D2E85F0F441CA14200D8BE
:100520000024C2E8534F03B1F5E710BD024652E87C
:10053000000F411E42E8001303B1F8E7704702467E
:1005400052E8000F10B9BFF32F8F7047411E42E8E9
:10055000001303B1F4E770470246D2E85F0F10B909
:10056000BFF32F8F7047411EC2E8531F03B1F4E75A
:100570007047024652E8000F10B9BFF32F8F704743
:10058000016842E8001303B1F4E7704702680A60AB
:10059000BFF35F8F50E8002F0B689342F6D140E81D
:1005A000001303B1F2E770470246D2E84F0FC2E8EA
:1005B000431F03B1F9E77047024652E8000F40EAD3
:1005C000010042E8000303B1F7E7704710B50246A7
:1005D00052E8000F20EA010442E8004303B1F7E7C4
:1005E00010BD10B5024652E8000F00EA01048C422B
:1005F00003D0BFF32F8F002010BD20EA010442E892
:10060000004303B1EFE710BD10B5024652E8000FFA
:10061000084203D1BFF32F8F002010BD20EA010450
:1006200042E8004303B1F1E710BD024652E8000F73
:10063000411C42E8001303B1F8E7704710B50246C9
:10064000D2E85F0F814202D8BFF32F8F10BD441C48
:10065000C2E8534F03B1F3E710BD10B50246D2E82C
:100660005F0F441CA14200D80024C2E8534F03B1DD
:10067000F5E710BD024652E8000F411E42E80013A4
:1006800003B1F8E77047024652E8000F10B9BFF314
:100690002F8F7047411E42E8001303B1F4E7704703
:1006A0000246D2E85F0F10B9BFF32F8F7047411E8B
:1006B000C2E8531F03B1F4E77047024652E8000F47
:1006C00010B9BFF32F8F7047016842E8001303B1E0
:1006D000F4E7704702680A60BFF35F8F50E8002FAD
:1006E0000B689342F6D140E8001303B1F2E770477C
:1006F0000246D2E84F0FC2E8431F03B1F9E7704743
:10070000024652E8000F40EA010042E8000303B14C
:10071000F7E7704710B5024652E8000F20EA0104DF
:1007200042E8004303B1F7E710BD10B5024652E8B6
:10073000000F00EA01048C4203D0BFF32F8F00208A
:1007400010BD20EA010442E8004303B1EFE710BD09
:1007500010B5024652E8000F084203D1BFF32F8FB5
:10076000002010BD20EA010442E8004303B1F1E794
:1007700010BD024652E8000F411C42E8001303B1CD
:10078000F8E7704710B50246D2E85F0F814202D801
:10079000BFF32F8F10BD441CC2E8534F03B1F3E7E2
:1007A00010BD10B50246D2E85F0F441CA14200D82C
:1007B0000024C2E8534F03B1F5E710BD024652E8EA
:1007C000000F411E42E8001303B1F8E770470246EC
:1007D00052E8000F10B9BFF32F8F7047411E42E857
:1007E000001303B1F4E770470246D2E85F0F10B977
:1007F000BFF32F8F7047411EC2E8531F03B1F4E7C8
:100800007047024652E8000F10B9BFF32F8F7047B0
:10081000016842E8001303B1F4E7704702680A6018
:10082000BFF35F8F50E8002F0B689342F6D140E88A
:10083000001303B1F2E770470948804709480047B1
:10084000FEE7FEE7FEE7FEE7FEE7FEE7FEE7FEE780
:10085000FEE7FEE704480549054A064B70470000DD
:10086000C94E00088901000818180020181E002031
:10087000181A0020181A00201EF0040F0CBFEFF306
:100880000880EFF30980816911F8021C91BB01B562
:1008900090E80F10E047BDE800508CE80300244BBF
:1008A00093E80600914208BF704741B91EF0100F4F
:1008B00010D12049086820F0010008600AE02CE906
:1008C000F00F1EF0100F08BF2CED108AC1F838C0D1
:1008D00081F822E01A6092F82210906B61F0FF0E0E
:1008E0001EF0100F08BFB0EC108AB0E8F00F80F3D4
:1008F00009887047104A13689942FAD801B552F82E
:1009000021C00FC8E047BDE80050CCF80000704798
:1009100001B506F015FABDE80140EFF3098CBEE71A
:1009200001B506F0FDFCBDE80140EFF3098CB6E728
:10093000C815002034EF00E078A00008032A40F238
:10094000308010F0030C00F0158011F8013BBCF171
:10095000020F624498BF11F801CB00F8013B38BF89
:1009600011F8013BA2F1040298BF00F801CB38BF97
:1009700000F8013B11F0030300F0B380083AC0F027
:10098000088051F8043B083A51F804CBA0E808105D
:10099000F5E7121D5CBF51F8043B40F8043BAFF390
:1009A0000080D20724BF11F8013B11F801CB48BFEA
:1009B00011F8012B24BF00F8013B00F801CB48BF20
:1009C00000F8012B70474FF000020429C0F012809C
:1009D00010F0030C00F01B80CCF1040CBCF1020FF2
:1009E00018BF00F8012BA8BF20F8022BA1EB0C01C7
:1009F00000F00DB85FEAC17C24BF00F8012B00F8BD
:100A0000012B48BF00F8012B70474FF0000200B5E2
:100A1000134694469646203922BFA0E80C50A0E821
:100A20000C50B1F12001BFF4F7AF090728BFA0E8CF
:100A30000C5048BF0CC05DF804EB890028BF40F89B
:100A4000042B08BF704748BF20F8022B11F0804FDD
:100A500018BF00F8012B7047704770477047431A62
:100A600028BF9A427FF66AAF032A1044114440F22D
:100A7000268010F0030F1EBF11F8013D521E00F832
:100A8000013D10F0030F7FF4F6AF11F0030300F007
:100A9000A381083AC0F00B8051F8043D083A51F8A0
:100AA00004CD40F8043D40F804CDFFF7F3BF121D1C
:100AB0005CBF51F8043D40F8043DAFF30080D2071D
:100AC00024BF11F8013D11F801CD48BF11F8012CE8
:100AD00024BF00F8013D00F801CD48BF00F8012C0B
:100AE000704710B5203AC0F00B80B1E81850203A9A
:100AF000A0E81850B1E81850A0E81850BFF4F5AFBE
:100B00005FEA027C24BFB1E81850A0E8185044BF47
:100B100018C918C0BDE810405FEA827C24BF51F8B4
:100B2000043B40F8043B08BF7047D20728BF31F8A8
:100B3000023B48BF11F8012B28BF20F8023B48BFF9
:100B400000F8012B704710B500F0B4F9343010BD37
:100B50000B3020F0070070472DE9F04117460E4694
:100B60000446FFF7F5FFA042054633D9002F1CBF0E
:100B700006F10C0005F007FC30467468F4B12168FA
:100B8000A94217D305F1080291423CBF6168416058
:100B900007D3626861194A602268521B0A6041608B
:100BA0002560002F1CBF06F10C0005F00EFC201D77
:100BB000BDE8F08120466468002CE0D1294630462B
:100BC00000F0B8F90028D7D1002F1CBF06F10C00A7
:100BD00005F0FBFB0020BDE8F08110B5044600F0F5
:100BE0009BF901682046BDE810400122B4E770B5CA
:100BF00016460D46041F002808BF70BD002E1CBFFE
:100C000005F10C0005F0BFFB2B465868002818BF03
:100C1000A04238BF0346F8D31968CA18A24218BFC9
:100C20005C6003D122681C461144196021680A19CE
:100C3000824218BF606004D1426862600068084464
:100C40002060002E1CBF05F10C0005F0BEFB70BD3E
:100C500010B5044600F060F901682046BDE8104078
:100C60000122C4E70FB4014610B504AA039802F0AC
:100C7000D1FF10BC5DF814FB7CB51D4616460C0078
:100C8000009001D02044401E074B7B442A46694611
:100C90000190304600F051FA05461CB1002069462B
:100CA00000F05EFA28467CBDDD0400000FB400B5FC
:100CB0008DB010A9099000910B904FF0FF300A9071
:100CC00000200C90064878440690064878446A460E
:100CD00007900F9909A800F0FBFD0DB05DF814FB1B
:100CE000270C00003F0C000010B5002001F092F826
:100CF000FFF7F6FABDE81040012000F0D5B840EA51
:100D00000103024630B59B0710D14FF0013400E0DB
:100D100008C208C91D1B9D4315EAC41FF8D013F073
:100D2000FF0102F8011B0DD01B0AF8E711F8013B87
:100D3000002B02F8013B05D011F8013B002B02F813
:100D4000013BF3D130BD0022CBB210F8011B994218
:100D500000D1421E0029F8D11046704710B5431C3F
:100D600002E010F8011B71B18107FAD14FF0013296
:100D700002C88C1A8C4314EAC211F9D0C01A0A06B0
:100D800003D0C01E10BDC01A10BD0A0401D0801EC1
:100D900010BD0902FCD0401E10BD421E12F8013FDA
:100DA000002BFBD111F8013B002B02F8013BF9D1DC
:100DB0007047431A28BF9A427FF693AE104410F052
:100DC000030F11441EBF11F8013D521E00F8013DF2
:100DD00010F0030F7FF4F6AF103AC0F00A8010B5A0
:100DE00031E91850103A20E91850BFF4F9AFBDE8C6
:100DF0001040530724BF31E9081020E9081044BF10
:100E000051F8043D40F8043D12F0030F08BF70474D
:100E1000D20728BF31F8023D48BF11F8012C28BF86
:100E200020F8023D48BF00F8012C704700F007B8D9
:100E300010B505F00AF9BDE8104005F085B810B509
:100E400000F00DF8016919B100220261884701E044
:100E500080688047FFF748FF10B5FFF745FF70B582
:100E600000F05FF804680546A4B92020FFF7B5FE3E
:100E7000040011D0094900202C60C4E90001084990
:100E8000A1602073206160610649A06109B101F091
:100E90000DF8E061204670BDFFF726FF000000005E
:100EA000590E00080000000001491820ABBEFEE703
:100EB00026000200004870477C1700207546FFF7A7
:100EC000F9FFAE4605006946534620F00700854607
:100ED00018B020B5FFF7BEFCBDE820404FF000067B
:100EE0004FF000074FF000084FF0000B21F0070112
:100EF000AC46ACE8C009ACE8C009ACE8C009ACE855
:100F0000C0098D467047000010B501F021F8001DA2
:100F100010BD00BFAD75000010B5FFF7CBFF083066
:100F200010BD10B5FFF7C6FF3C3010BD70477047CD
:100F30007047704738B504460A4600206946AFF34B
:100F40000080002808BF38BD02460099204601F005
:100F50000BF8012038BD012002F035BBF8B5AFF326
:100F60000080054600200C46102000BF0646A81948
:100F7000A0420DD9324669460020AFF30080070039
:100F800008BF02F020FB0098A04218BF0546C41914
:100F9000FFF7C2FF05600746F01D20F00700461965
:100FA000284600F00AF8B44208BFF8BDA21B31463B
:100FB0003868BDE8F84000F0D7BF00210160C0E903
:100FC00001100C3005F0F0B91020704770B50446E0
:100FD00085690068C10601D5302600E02026C007DB
:100FE00007D070BDD4E9012130469047206A401CEB
:100FF00020626D1EF6D570BD70B504468569007817
:10100000C00707D170BDD4E9012120209047206A94
:10101000401C20626D1EF6D570BD09684A0501D5D9
:1010200040B27047C905FCD500B2704709684A054F
:1010300001D5C0B27047C905FCD580B2704770B504
:101040000C460546012A05D02878800600D5EA69B5
:10105000002302E0012305E05B1C934202D2E05C26
:101060000028F9D1A869E618C01AA861286A1844AE
:1010700028622846FFF7AAFF04E0D5E9012114F809
:10108000010B9047B442F8D32846FFF7B5FF70BD77
:101090002DE9F0410646002410687529314616A551
:1010A00010D0FFF7BAFF002802DA404213A507E08C
:1010B00031688A0701D512A502E0490704D511A5B8
:1010C000012401E0FFF7B2FF00210A2206F1240704
:1010D00009E0B0FBF2FCB0FBF2F302FB1C00303085
:1010E00078541846491C0028F3D123462A46304636
:1010F000BDE8F04100F0A5BF000000002D00000099
:101100002B0000002000000011680268006A5305EF
:1011100001D508700AE0D30501D5088006E0130662
:1011200003D5C217C1E9000200E008600120704742
:1011300001694A1C02610878704700B58FB0CDE99B
:1011400001310021059105497944CDE9031011468B
:10115000684600F031F90FB000BD0000E5FFFFFF69
:101160000A6802F8010B0A607047D1E900239A422D
:1011700002D2531C0B601070704700002DE9FF5F16
:1011800015468A460446DFF8AC80F8440027D8E9C3
:1011900000103E46CDE9001010E03AF816106A46FD
:1011A00002A802F0ABF9411C07D02178890603D5CB
:1011B000E269391891420DD80744761C20788006E0
:1011C00002D5E069B84205DDAE42E6DB3AF816002A
:1011D0000028E2D1A069C01BA0612046FFF7F6FEFF
:1011E000D8E90010CDE90010002017E03AF81810F7
:1011F0006A4602A802F082F9B0F1FF3F81460BD0A7
:1012000000250DF1080B05E0D4E901211BF80500CC
:1012100090476D1C4D45F7D308F10100B042804660
:10122000E4DB206A384420622046FFF7E5FEBDE893
:10123000FF9F00004A9100002DE9F0418046D21D39
:1012400022F007020025D2E90002F52915A614D0E4
:10125000011E72F1000106DA0023D0EB030063EBFC
:10126000020211A608E0D8F800108B0701D50FA6DE
:1012700002E0490701D50EA601251146002408F118
:10128000240704E000F08FFE30323A55641C50EA27
:101290000102F7D12B46324621464046BDE8F041D7
:1012A00000F0CFBE000000002D0000002B00000069
:1012B0002000000030B4002100F1240408E002F016
:1012C0000705D208303542EA4372DB086554491CF1
:1012D00052EA0305F3D10468002310A2250707D5BD
:1012E000A40600D421B1C46901230DA2641EC46107
:1012F00030BC00F0A6BE10B5044621461068FFF7CA
:1013000095FE02462046BDE810400023D2E7D21DDC
:1013100022F00701D1E90023CCE700000000000023
:1013200030000000F0B40D460188090502D5214CBB
:101330007C4402E01F4C7C440E34002100F1240662
:1013400008E002F00F071209E75D42EA03721B0989
:101350007754491C52EA0307F3D10278002312079D
:1013600004D5702D06D009B1022311342246F0BCF9
:1013700000F067BE01231034F8E770B504460D464F
:1013800021461068FFF752FE024629462046BDE876
:1013900070400023C6E7D21D22F00703D3E90023E3
:1013A000C0E70368126843F0200303600823C361A9
:1013B0000023B7E7AC8F00002DE9F05F89460446B3
:1013C0004FF0000ADFF874B1FB44C0F820A02046BB
:1013D000E1688847002874D0252806D0D4E9012187
:1013E0009047206A401C2062F1E700265F462046B5
:1013F000E16888472028054607DB312D05D278199A
:1014000010F8200C08B10643F1E7B00701D526F02B
:101410000406C4F81CA00027C4F818A02A2D09D07F
:10142000284604F0A9FF38B304EB8708303DC8F81C
:10143000185019E059F8041B204604EB870291610B
:10144000E1688847012F054618D1E069002820DAB5
:1014500026F020061DE0D8F8180000EB800005EB10
:1014600040003038C8F818002046E1688847054633
:1014700004F082FF0028EED1012F0AD02E2D08D1D2
:101480002046E16888477F1C0546022F46F020066B
:10149000C4DBA069002803DA404246F00106A061DF
:1014A000F00701D026F010066C2D0BD0682D09D066
:1014B0004C2D39D06A2D35D0742D35D07A2D33D0BE
:1014C00016E038E0E1682F4620468847B8420546D6
:1014D00009D16C2F26D04FF48060E1680643204686
:1014E0008847054604E06C2F1AD04FF480700643FD
:1014F0000DB3A5F14100192802D8203546F4006645
:101500004A462946204626604E46FEF787FE80B1B1
:1015100001280BD0F61D26F0070000F1080956E758
:101520004020E4E78020D8E70020D6E706F1040950
:101530004DE7284652E7206ABDE8F09F3C8F000047
:101540002DE9FF4F1C4691464FF0FF3581B0002139
:101550008A468846D4E90167A16902986D1C8847CC
:10156000216A834688470028F6D1BBF1FF3F0CD0A3
:10157000002F26F4C0661ADD700615D5BBF12B0FBF
:101580000AD0BBF12D0F0FD104E04FF0FF3005B0B2
:10159000BDE8F08F46F48066A16902986D1C88470B
:1015A0007F1E8346002F02DDBBF1300F03D0B9F15F
:1015B000000F2AD025E0A1696D1C02987F1E46F419
:1015C00000768847002F834605DDBBF1780F06D0F3
:1015D000BBF1580F03D0B9F1000F10D011E0B9F1F1
:1015E000000F02D0B9F1100F0BD1A1696D1C029848
:1015F0007F1E26F4007688478346102000E00820EE
:1016000081464FEAE970009017E00A20F8E7434668
:10161000AAFB0928DDF800C07F1E03FB098046F401
:10162000007605F101050AFB0C0112EB0B0A02988A
:1016300041EBEB78A16988478346002F06DD4946D8
:10164000584601F011F95FEA000BE0D5E169029814
:101650008847B00502D46FF0010098E7F00718D171
:10166000700610D55146700505D50023D1EB030156
:1016700063EB080200E042462068031D2360006817
:10168000C0E9001205E02068011D21600068C0E982
:1016900000A828467BE72DE9FF5F1D464FF0FF3B82
:1016A00091464FF000085F46D5E90146A9690198C7
:1016B0007F1C8847296A824688470028F6D1BAF1FC
:1016C000FF3F0CD0002E24F4C06419DD600614D551
:1016D000BAF12B0F09D0BAF12D0F0ED103E0584605
:1016E00004B0BDE8F09F44F48064A96901987F1CB0
:1016F0008847761E8246002E02DDBAF1300F03D0F5
:10170000B9F1000F26D032E0A969761E01987F1C3E
:1017100044F400748847002E824605DDBAF1780F44
:1017200006D0BAF1580F03D0B9F1000F10D01EE067
:10173000B9F1000F02D0B9F1100F18D1A969761EC6
:1017400001987F1C24F4007488478246102002E030
:10175000082000E00A20814609E0A96908FB090881
:10176000761E01987F1C44F4007488478246002E40
:1017700005DD4946504601F077F80028EDDAE969C1
:1017800001988847A00502D46FF00100A8E7E007A0
:1017900025D1600613D5600502D5C8F1000000E030
:1017A000404629680A1D2A600968220501D508708B
:1017B00015E0220701D5088011E008600FE02868D5
:1017C000011D29600068210502D580F8008006E02F
:1017D000210702D5A0F8008001E0C0F8008038465B
:1017E0007EE72DE9FF5F4FF0000899461446464614
:1017F0009169D2E901A7DDF838B00198884705461C
:1018000059EA0B0005D009E0A1690198761C8847C8
:101810000546216A284688470028F5D1681C03D070
:101820005FEACA7005D015E04FF0FF3004B0BDE8A4
:10183000F09F2068011D2160D0F800800AE05FEA77
:10184000CA7001D108F8015BA169761C01987F1E5E
:1018500088470546002F1ADD681C18D0B9F1000F23
:101860000DD0E81705EBD060421120F01F0059F8A9
:1018700022102A1A012090400142E0D107E0BBF17A
:10188000000FDCD12846216A88470028D7D0E169BB
:1018900001988847BBF1000F07D1002E05DD5FEAF4
:1018A000CA7002D1002188F80010A068B84203DD98
:1018B000BBF1000F03D017B16FF00100B6E730465F
:1018C000B4E70000026811441378016018467047BD
:1018D000D16005497944516104497944116200217C
:1018E0001161114600F0CEBFEDFFFFFF530700006E
:1018F000426842B1016811F8013B23B1521EC0E9B0
:101900000012184670470121C160881E7047426866
:101910005AB1C368016843B983688B4205D0491E38
:10192000521CC0E90012002070474FF0FF30704792
:101930002DE9FF4F4FF000089A461446C14646462F
:1019400083B0D2E901B7CDF80080CDF80480916969
:1019500004988847109905465AEA010005D009E025
:10196000A1690498761C88470546216A284688475D
:101970000028F5D1681C03D05FEACB7005D02AE0BF
:101980004FF0FF3007B0BDE8F08F2068011D2160E7
:10199000D0F800801FE002A86A46E9B201F090FD8D
:1019A000411C07D0801C09D04FF000095FEACB70C2
:1019B00007D00AE0E169049888473EE04FF001094A
:1019C00004E0BDF8081028F8021B7F1EA1690498E6
:1019D000761C88470546002F1ADD681C18D0BAF11E
:1019E000000F0DD0E81705EBD060421120F01F006A
:1019F0005AF822102A1A012090400142CBD107E068
:101A000010980028C7D12846216A88470028C2D0EC
:101A1000E16904988847B9F1000F0ED1109830B9E8
:101A2000002E04DD5FEACB7001D1A8F80000A068A9
:101A3000B84202DD109818B117B16FF00100A1E7AC
:101A400030469FE72DE9FF4F4FF000089B461446B4
:101A5000454683B0D2E90196CDF80080CDF80480E8
:101A60009169DDF848A00498884707465BEA0A00B8
:101A700005D009E0A16904986D1C88470746216AD2
:101A8000384688470028F5D1781C03D05FEAC97032
:101A900005D01BE04FF0FF3007B0BDE8F08F2068A5
:101AA000011D2160D0F8008010E05FEAC97007D105
:101AB0006A464046B9B201F021FD411C31D0804454
:101AC000A1696D1C0498761E88470746002E14DD18
:101AD000781C12D0BBF1000007D03B46DDE91012A4
:101AE00001F006FB0028E0D107E0BAF1000FDCD1DD
:101AF0003846216A88470028D7D0E169049888478A
:101B0000BAF1000F06D1002D04DD5FEAC97001D1E2
:101B100088F80000A068B04203DDBAF1000F03D0DE
:101B200016B16FF00100B7E72846B5E72DE9FF5F72
:101B30009B46144600273D469169D2E90196DDF89F
:101B400040A00198884780465BEA0A0005D009E07A
:101B5000A16901986D1C88478046216A40468847E4
:101B60000028F5D1B8F1FF3F03D05FEAC97005D076
:101B700014E04FF0FF3004B0BDE8F09F2068011D75
:101B8000216007680AE05FEAC97001D127F8028B7B
:101B9000A1696D1C0198761E88478046002E15DDD0
:101BA000B8F1FF3F12D0BBF1000007D04346DDE99A
:101BB0000E1201F09DFA0028E5D107E0BAF1000FFE
:101BC000E1D14046216A88470028DCD0E1690198CC
:101BD0008847BAF1000F05D1002D03DD5FEAC97017
:101BE00000D13880A068B04203DDBAF1000F03D005
:101BF00016B16FF00100BEE72846BCE710B5654896
:101C00005421FEF702FF64485421FEF7FEFE6348AC
:101C10005421FEF7FAFE62485E49624A624B016057
:101C20005D4810605D4A1A60431C0B65511C0165DC
:101C30000120106557484C3004F0B6FB56484C3034
:101C400004F0B2FB55484C3004F0AEFB574804F0AA
:101C5000ABFB58484F4A56A1784401F00AFB20B923
:101C6000544878440A3801F0A7FC54484A4A52A123
:101C7000784401F0FEFA20B9504878440A3801F05F
:101C80009BFC4F48454A4CA1784401F0F2FA20B938
:101C90004B4878440A3801F08FFC40233D48DC0073
:101CA0000021224601F059FA20B1424878445438C4
:101CB00001F082FC384822464023002101F04DFA11
:101CC00020B13E487844543801F076FC334822462F
:101CD0001023002101F041FA002806D0384878444A
:101CE000BDE81040563801F067BC10BD2B482DE907
:101CF000F041006D2D4E20F00104304604F043FB0E
:101D0000244D4C35284604F03EFB224801F0FFF9F3
:101D1000284604F05AFB284604F040FB1E4D4C3583
:101D2000284604F030FB1C4801F0F1F9284604F085
:101D30004CFB284604F032FB184D4C35284604F085
:101D400022FB164801F0E3F9284604F03EFB284642
:101D500004F024FB14E0206D20F0010504F14C0098
:101D6000074604F010FB204601F0D1F9384604F094
:101D70002CFB384604F012FB2046FEF769FF2C4688
:101D8000002CE8D1304604F020FB084804F006FBA4
:101D9000BDE8F08180160020D4160020281700200E
:101DA00074150020781500207C150020B015002047
:101DB00072000000BD86000077000000A9860000C8
:101DC000958600000A460146014801F0EABA000083
:101DD000DC17002010B50446AFF300802046BDE8B4
:101DE0001040FEF793BA2DE9F041074615460E461E
:101DF0001020FEF7F2FE04000AD06760C4E9026515
:101E000000F0ABF80168216004600020BDE8F081BB
:101E10000120FBE710B501F0B7FBBDE8104001F071
:101E2000AEBB01B5FEF78AFD01BD00004FF0013CDD
:101E300050F8042B51F8043B9A4221D1A2EB0C0339
:101E4000934313EACC1317D150F8042B51F8043BF9
:101E50009A4215D1A2EB0C03934313EACC130BD196
:101E600050F8042B51F8043B9A4209D1A2EB0C0321
:101E7000934313EACC13DBD04FF00000704700BF50
:101E8000D01A01BAB1FA81F101F0180122FA01F079
:101E9000CB40C1F12001DBB2C0B2C01A2CFA01F371
:101EA000D11A914311EAC311E6D1704710B58820C9
:101EB000FEF793FE002801D00021017010BD80299B
:101EC00002D808B1017809B100207047012100F85B
:101ED000081B704718B100F10802914201D00020A0
:101EE00070470021017070470EB5CDE90001FEF783
:101EF00035FF029069460120ABBE0EBD08B56946AC
:101F000000900220ABBE08BD1FB58DE807006946F2
:101F10000520ABBE04B010BD1FB58DE80F006946AB
:101F20000620ABBEF6E708B5694600900920ABBEB7
:101F300008BD1CB5CDE9000169460A20ABBE1CBD39
:101F4000704708B5694600900C20ABBE08BD7047CD
:101F500010B5FEF7AFFF203010BD10B5FEF7AAFF99
:101F6000383010BD04F0DCB930B404468C46436808
:101F7000002B18BF634538BF1846F8D303681844D0
:101F8000604507D0C81C20F0070000F1040CACEB42
:101F90000100121A2146CCF8002030BC00220CF1BE
:101FA0000400FEF724BE30B5B0F10A024FEA900EED
:101FB00071F100034EEA817EB0EB0E0061EB9101FE
:101FC0004FEA101E4EEA017E10EB0E0041EB11119C
:101FD0004FEA102E4EEA016E10EB0E0041EB11217C
:101FE0004FEA104E4EEA014E10EB0E0041EB11414C
:101FF000401841F100014FEAD00040EA41704FEA39
:10200000D10110EB80054FEA810444EA907444EB5F
:1020100001046D1944EB0404521BA3414FF000036B
:1020200048BF0A3200D530BD401C41F1000130BD2F
:1020300010B50446FEF768FF0068005D00F001007F
:1020400010BD2DE9F0470D4699469246044600F131
:1020500024080168880604D5E06921F01001216098
:1020600000E00120A84201DD471B00E00027A16934
:102070007A1902EB0900081AA0612078C00602D480
:102080002046FEF7A3FF002608E0D4E901211AF854
:1020900006009047206A401C761C20624E45F4DB07
:1020A0002078C0060AD52046FEF790FF06E0D4E966
:1020B000012130209047206A401C2062381EA7F181
:1020C0000107F4DC07E0D4E9012118F80500904786
:1020D000206A401C2062281EA5F10105F3DC204681
:1020E000FEF78AFF2078000602D50220BDE8F087BF
:1020F0000120FBE770472DE9FF4F0C461E464FF0CD
:10210000FF378BB0D2E90001DDF860800A908A4683
:10211000C1F30A5505B93D46002108464FF00000BD
:10212000BAF1000F00F4400005DA00EB80004FF434
:10213000400101EA50004FEA9059B9F1010F00DD6A
:10214000B9460A9850EA4A000ED044F61050A5F25B
:10215000FF3545432F14B8F1000F1ED07542291EDC
:102160001EDDC9F100021CE0B8F1010F4FF00000C4
:1021700001D0302103E0F24305E02154401CB0427D
:10218000FBDB30460022002121540B99C1F8088066
:10219000C1E900200FB0BDE8F08FBD1B6D1CDEE76C
:1021A0004A4600DA694206A801F06EFA06AB93E8E7
:1021B000070003AB83E8070050460A9901F0C8FF07
:1021C0008DE80700A0F500501F3800900398002DFF
:1021D0000ADD42F21F014A460844002303A9039086
:1021E000684602F073FA09E0A0F500504A461F382D
:1021F000002303A90390684602F092FA8DE80700D5
:102200000004000C03D04FF0FF30410800E01046FE
:10221000B8F1000F03D00022009215461EE0751E93
:1022200005D4FFF7C0FE303262556D1EF9D5B346B6
:102230000122084302D000227F1C04E020783028CD
:1022400001D100227F1E002A099784D01DE0112DA4
:1022500007DAFFF7A8FE303262556D1C50EA010222
:10226000F5D1084302D00098C8B10EE00021681EE5
:1022700005E0235C625C63542254401E491C814289
:10228000F7DBAB46A81B401E0990002004F80B00AA
:102290000B98099AC0F80880C0E9002B7AE711264C
:1022A0004FF0000857E72DE9F04F88460446D21D4D
:1022B00022F0070191B0D1E90001CDE90A0103F054
:1022C000ACFE02460B98C00F01D02D2007E020681D
:1022D000810701D52B2002E0202101EAC000032A5A
:1022E000099001D0072A05DB03464146204601F04C
:1022F0008BF90BE12078800601D5E06900E006202B
:10230000B8F1650F814606D0B8F1660F18D0B8F164
:10231000670F70D131E00020B9F1110F009001DB9F
:10232000112301E009F101030AAA01A90CA8FFF792
:10233000E2FEDDE90C70002609F10105834647E065
:1023400001204B4600904FF000470AAA01A90CA8B3
:10235000FFF7D1FEDDE90DB00C995D46002610B9FE
:1023600009F101000D18B9EB050003D4C0F1FF36E7
:1023700009F10105A5EB09002BE0B9F1010F01DA24
:102380004FF001090020B9F1110F0090484601DD1E
:10239000112300E003460AAA01A90CA8FFF7ABFE2F
:1023A000DDE90C704D4600268346207800070AD4EC
:1023B000AB4500DA5D4601A8012D04DD411911F895
:1023C000011C302907D04F4502DA17F1040F04DA57
:1023D000012082460FE06D1EEEE7002F02DCED1BB0
:1023E0003E4403E0781CA84200DD7D1CB81B00F1D0
:1023F000010A4FF000472078000703D4AA4501DB0B
:102400004FF0FF3A0021B7F1004F0DF143088DF86E
:10241000431024D002202B23002F01DA7F422D23EA
:102420000A21021EA0F1010000DC5FB197FBF1FC64
:1024300097FBF1F201FB1C7C17460CF1300C08F8FD
:1024400001CDEEE7A8F1010003702188090501D54F
:10245000452100E06521A0F1010800F8011C099860
:102460000FA9A1EB0807FF1D00B10120411901EBE5
:10247000EA70A1693844081A401EA0612078C0069D
:1024800002D42046FEF7A2FD099828B1D4E9012123
:102490009047206A401C20622078C00622D5204642
:1024A000FEF794FD1EE0002E04DBB34502DD01A81B
:1024B000805D00E03020D4E901219047206A401C73
:1024C0002062761CAAF101005FEA000A0AD1FFF738
:1024D0003FFDC0680168405CD4E901219047206A53
:1024E000401C2062281EA5F10105DCDC07E0D4E9D0
:1024F000012118F8010B9047206A401C2062381E09
:10250000A7F10107F3DC2046FEF776FD032011B0AA
:1025100041E600002DE9F04F04460D46D21D22F0A1
:10252000070089B0D0E900974846394603F075FDA9
:102530000246F80F01D02D2307E02068810701D55E
:102540002B2302E0202101EAC0038DF820300BB1DB
:10255000012000E00020032A824601D0072A04DB84
:102560002946204601F050F83FE12078800601D44A
:102570000D2500E0E569C7F30A560D2D49DA002163
:102580004FEA175B08464FF00000002F00F44000B0
:1025900007DA00EB80004FF4400100EBD07001EA55
:1025A00060008115012901DD4FF0FF3100224FEA63
:1025B000850CBCF1180F06D31346ACF118004FF090
:1025C0008052C24003E04FF4801323FA0CF30CF165
:1025D0000C0CBCF1200F04D3ACF1200C09FA0CF068
:1025E00001E007FA0CF000294FF0004801DD18B9AE
:1025F0000FE00ED140450CD319EB02095F4121B920
:10260000404502D19F4329EA0209BBEB175F00D086
:10261000761C2088000502D57B48784402E07A4881
:102620007844193808AA302302F80A30037C0AF1EA
:102630000101002E0AF1020A53546A4602DC4FF0EF
:10264000300101E04FF031014FF001088DF800102A
:1026500002D0A6F2FF3603E059EA470100D06B4EE4
:10266000002D02DC2178090704D54FF002082E2145
:102670008DF80110C44600210BE0C7F303433F016E
:10268000C35C491C6D1E02F80830052908F10108D9
:1026900001DA002DF1DC00210CE000EB1973491C7C
:1026A0001B786D1E082902F808304FEA091908F155
:1026B000010801DA002DF0DC21688B0602D516E056
:1026C000A8F10108E04505DD02EB080313F8013C21
:1026D000302BF5D0B8F1000F09DD02EB080313F839
:1026E000013C2E2B03D1090701D4A8F10108002DCC
:1026F00005DD3E2102F808106D1E08F10108407C3E
:10270000002E02F8080008F1010804DA2D207642B4
:1027100002F8080002E02B2002F808000A214FF41A
:102720007A70864208F101080BDB96FBF0F3303338
:1027300002F8083096FBF0F308F1010800FB13667D
:1027400001E0642E0CDB642096FBF0F3303302F8DA
:10275000083096FBF0F308F1010800FB136601E076
:102760000A2E06DB96FBF1F0303002F8080008F183
:10277000010896FBF1F001FB1060303002F8080010
:10278000A16908F1010808EB050202EB0A00081A2A
:10279000A0612078C00602D42046FEF717FC216A0B
:1027A00008AE01EB0A00206204E0D4E9012116F82A
:1027B000010B9047BAF1010AF7D22078C00602D582
:1027C0002046FEF703FC6E4609E016F8010B3E2892
:1027D0000FD0D4E901219047206A401C2062B8F153
:1027E0000108F2D22046FEF707FC09B00320BDE83D
:1027F000F08F206A2844206203E0D4E901213020D0
:1028000090476D1EEBD3F8E71A7D000002FCFFFF36
:1028100010B5436913B1AFF3008001E0FEF70FFC80
:10282000012010BD127800F124010A7000224A70C4
:102830000122EDE711684FF0FF32E9E710B5436977
:1028400013B1AFF3008001E0FEF798FC012010BD4A
:10285000128800F1240182840022C2840122EDE763
:1028600011684FF0FF32E9E73A2800D2303820F003
:102870002002412A01D3A2F13700884201D34FF050
:10288000FF3070472DE9F34F4FF0000A0C465646D3
:102890008DB001200C9001F10C000B9062690B9837
:1028A00001219047051E2DD0252D2CD0216A884767
:1028B000C0B162690B9801219047216A88470028BE
:1028C000F7D16269411E0B98904700E0761CA16920
:1028D0000D988847216A88470028F7D1E1690D984B
:1028E0008847DBE7A1690D988847A842074601D1D0
:1028F000761CD3E7E1690D9888477F1C02D1BAF1B5
:10290000000F6FD06BE162690B9800273D46394696
:1029100090472A2804D162690B980121904701252C
:10292000DFF8D08262690B9801219047A0F1300155
:102930000A290AD24745E5DC07EB870100EB41078E
:10294000303FDFD445F01005ECE7E90601D46FF025
:1029500000476C280AD04C2814D0682815D06A2863
:102960000DD074281CD07A281AD01DE062690B980B
:10297000012190476C2802D045F0040514E045F091
:1029800002050DE045F020050AE062690B9801217F
:102990009047682802D045F0080505E045F4006539
:1029A00062690B9801219047C4E9015765283DD021
:1029B00019DC58287AD00CDC452837D004DC2528CF
:1029C00026D041289ED131E046282FD0472899D1E2
:1029D0002CE05B2877D0612828D063287CD064283D
:1029E00023D15AE0F6E06F2848D008DC66281DD0D5
:1029F00067281BD0692821D06E2816D127E07028BF
:102A000045D0732868D0752847D078280DD14DE07F
:102A1000A1690D988847252805463FF469AFE1690B
:102A20000D9888476D1C3FF46AAFD8E00D99234696
:102A30006A466FF0010007F0CEFAC5E045F04000AD
:102A400023464FF000026060A80736D43EE0E80756
:102A50007FF447AF2068011D21600068290501D57A
:102A600006701BE7290701D5068017E7A90703D5DC
:102A7000F117C0E9006111E706600FE745F040007B
:102A800023464FF008026060A80716D41EE040F607
:102A90000E0125EA0100606016E045F04000234683
:102AA0004FF00A026060A80707D40FE045F040002D
:102AB0006060A80708D5234610220D996FF0010029
:102AC000FEF73EFD80E007E0102223460D996FF0EF
:102AD0000100FEF7E0FD77E04FF0000963284F4664
:102AE000C8464B46CB4602D05B2806D038E0E80605
:102AF00001D40120A060012732E06269D4F80CB053
:102B00000B98012190475E2807D14FF001094946F3
:102B10006269D4F80CB00B989047216939B900214B
:102B20000A4603AB43F82120491C0829FADBD8B335
:102B3000216949B308F1010862690B9801219047A6
:102B40005D28F4D1B9F1000F09D0002003A951F894
:102B50002020D24341F82020401C0828F7DB03AB9B
:102B60002069002820794FEA40701ED05B4622463B
:102B7000CDF80080CDE901970D9900286FF0010094
:102B800020DAFEF7D3FF1FE0C11703AA00EBD161E3
:102B90004B1121F01F0102EB8302411A136801203F
:102BA000884003431360C7E719E00D9922460028C7
:102BB0006FF00100009702DAFEF7BAFE04E0FEF7BC
:102BC00010FE01E0FEF73EFF00280ADA401C06D1A5
:102BD0000C9820B14FF0FF300FB0BDE8F08F504699
:102BE000FAE7E90701D10AF1010A064400200C9036
:102BF00054E60000CCCCCC0C2DE9FF4F06468BB040
:102C00000878FF2806D0491C2D2805D000244FF055
:102C1000000908E000200CE00124F8E709EB890333
:102C2000491C00EB43090878FF28F7D114B1C9F11A
:102C300000008146107800252C46AA4629462D28FA
:102C400001D02B2804D1521C2D2813D000208246FD
:102C50008B461078FF280FD04FF0000C0A21521C31
:102C6000A5FB017804FB018105FB0C11C5194BEB99
:102C70000104EEE70120EAE7002108464FF00000DA
:102C8000BAF1000F02D000EB80004008C0F381577A
:102C9000012F01DD4FF0FF370E9955EA040009EBD3
:102CA00001080BD04FF0020918F5FA7F16DA4FEA47
:102CB000CA70002F706008DD012007E04FEACA707B
:102CC000C6E900B00FB0BDE8F08F00203060FFF71C
:102CD00049F9C0F800901821084616E0B8F5FA7FC7
:102CE00018DD002F02DAF748784401E0F64878440E
:102CF000D0E90010C6E9001040EACA707060FFF722
:102D000031F9C0F80090142108460FB0BDE8F04F2B
:102D100007F0FAB8002108464FF00000B8F10001B2
:102D2000099002DAC7F1000200E03A4601DAC8F180
:102D3000000106A800F0A8FC06AB93E8070003AB6F
:102D400083E8070044F23E005BEA04010090584625
:102D500004D144F21E012C465D460091210C090469
:102D6000014306D10099240444EA15442D04103986
:102D7000009104F07F41014306D10099240244EA06
:102D800015642D020839009104F07041014306D109
:102D90000099240144EA15742D01091F009104F0E3
:102DA0004041014306D10099A40044EA9574AD0066
:102DB000891E009104F00041084304D100986D1968
:102DC0006441401E00904FF001033A466846B8F156
:102DD000000FCDE9014503A902DD01F0B6FC01E0D9
:102DE00001F089FCBAF1000F04460D4601D084F0D1
:102DF0000044002108464FF00000099940F2FF7797
:102E0000484010F00C0F07D124F00040284303D0B5
:102E1000C4F30A50B84212D1FFF7A4F8C0F80090EA
:102E2000C4F30A50B8420AD1A8487844D0E9001047
:102E3000C6E9001004F000410843706042E7C6E9AB
:102E400000543FE72DE9FF4F1F464FF0000A4FF0B7
:102E5000FF38454691B0D7E90146CDF83CA0FFF7D1
:102E600077F8C0680168405C1090B96912986D1CD1
:102E70008847396A814688470028F6D1B9F1FF3F73
:102E80000AD0002E24F4D06411DDB9F12B0F08D044
:102E9000B9F12D0F0BD102E0404615B013E744F411
:102EA0008064B96912986D1C8847761E814660055A
:102EB00004A901D52D2000E02B20002E01F1010BEB
:102EC0000DF130088DF810003FDDB9F1690F08D021
:102ED000B9F1490F05D0B9F16E0F02D0B9F14E0F1B
:102EE0001CD13B4601A8009580E85002DDE9121292
:102EF0006FF0020007F073F8C11CCED10EE0B96983
:102F000012986D1C884781461398761E44F400740D
:102F100005600F98401C002E0F9016DDB9F1300FA0
:102F2000EDD0B9F1780F02D0B9F1580F0DD10F984B
:102F300001280AD13B46CDE90054DDE91212001FF9
:102F4000029607F04AF8C11CA7D1109989453ED1D5
:102F500044F0800406E01399681CAAF1010A44F4C5
:102F600000740860B9696D1C1298761E8847302875
:102F70008146F0D02BE01099894505D1200603D475
:102F8000761E44F0800418E0484603F0F5F908B3D3
:102F9000761E0DF123018B4544F4007408D2A9F18B
:102FA00030000BF8010B200607D5AAF1010003E061
:102FB000200602D40AF101008246A00502D5139929
:102FC000681C0860B96912986D1C88478146002EFC
:102FD000D1DC53E0002E51DDB9F1650F02D0B9F11B
:102FE000450F4BD1A00549D5B9696D1C1298761EC5
:102FF00024F440748847002E81460CDD2B2804D031
:10300000B9F12D0F07D144F48074B96912986D1C81
:103010008847761E8146E00501D52D2100E02B2151
:1030200008F8011BCDF8008021E0761E0DF1390172
:10303000884544F400740CD2A9F1300010F0FF0070
:1030400088F8000002D10099884509D908F10108E3
:1030500006E0E00501D51E4801E042F20F7082460D
:10306000B96912986D1C8847814613980560002E37
:1030700004DD484603F080F90028D6D1F96912989A
:103080008847FF2053468BF8000088F80000002096
:103090000A900B9004AA0CA90AA8FFF7ADFDA005A1
:1030A00002D46FF00100F8E614F0240F12D0E0070C
:1030B0001CD13868DDE90A12031D3B600068C0E9D5
:1030C000001213E0D07A0000C27A00008679000076
:1030D000F1D8FFFF0AA9684603F0E2F8E00705D13E
:1030E0003868009A011D3960006802602846D4E6FD
:1030F00010B508E030F8024B9C4204D10AB1002020
:1031000010BD012010BD491EF4D2104610BD2DE99E
:10311000F04704464FF000094FF0FF37C568D4E987
:103120000486A80707D0204600F0BCFC3046FEF716
:10313000E5FE002802DA3846BDE8F087280502D50A
:103140004046FDF785FD4C212046FDF75EFC206DD5
:1031500020F0010020654846EEE72DE9F0470446DF
:103160001E4690460D46C7684C30814603F00BF969
:10317000B80714D0780212D44046B8F5807F09D041
:10318000B0F5007F06D0B8F5806F08D1012604F1B4
:10319000240506E0701E6FF07F41884201D30124B0
:1031A00009E02561E6616560E06820F4706040EA4E
:1031B0000800E0600024484603F007F92046BDE817
:1031C000F08700002DE9F04716468846814602F157
:1031D0004C07384603F0D7F83046FFF798FF18F849
:1031E000010B61280AD0722802D077283FD102E073
:1031F0000125002405E00225042402E0082448F209
:10320000020518F8010B2B2806D0622809D018F8FF
:10321000010C74280AD00BE045F0030544F00204C9
:10322000EFE745F0040544F00104EAE744F0100438
:1032300048462146FEF758FE411C18D00021316156
:1032400071604FF40071F560F1617061200704D581
:1032500030460222002100F075FB306D40F0010085
:103260003065384603F0B1F83046BDE8F0870026F7
:10327000F7E72DE9F04115460E460746204C20465B
:1032800003F081F82A4631463846FFF79BFF054692
:10329000204603F09AF82846BDE8F0812DE9F04178
:1032A0000E468046164D284603F06DF8154C206DED
:1032B000C10704D0410804D020F00104F7E72246FA
:1032C00012E05420FDF789FC070017D0206D47F06D
:1032D00001010843542120653846FDF796FB07F1AC
:1032E0004C0003F061F83A4631464046FFF76AFF6A
:1032F0000446284603F069F82046CDE70024F8E7A5
:10330000B01500208016002070B50646484231EA0C
:1033100000000FD02A20741C00253070FEF718FE24
:103320000346002253F82500010F000109292BD97B
:1033300057312AE0042913D004DC012908D00229DE
:1033400004D109E008290FD0102911D0002070BD48
:10335000FEF7FEFD00680EE0FEF7FAFD40680AE0A9
:10336000FEF7F6FD806806E0FEF7F2FDC06802E0B9
:10337000FEF7EEFD006928B120F0030050F8041CB0
:10338000084470BD4CA070BD3031521C082A04F8AE
:10339000011BC9D36D1C052DC3DB002020703046F6
:1033A00070BD09B14B0901D00020704722B11378DC
:1033B0002A2B02D000F034B8A6E7AFF300802DE945
:1033C000F0410F468046541C00250026314614F873
:1033D000010BA0F13002092A03D9A0F16103052BEA
:1033E00016D8392801D8104600E05738491C08295A
:1033F00040EA0616EBD30120A840384203D0FEF77E
:10340000A7FD40F825606D1C052DDEDB207810B18E
:103410000020BDE8F08139464046BDE8F04173E741
:103420002DE9F0410C460646154688070AD5114697
:103430002248784405F044F8071EEAD0FEF788FDDC
:103440007F1C4760E0070AD029461C4878441A3898
:10345000AFF30080071EDCD0FEF77AFD076060073F
:103460000AD52946154878443438AFF30080071E42
:10347000CFD0FEF76DFD876020070AD529460F489B
:1034800078444E3805F032F8071EC2D0FEF760FDD2
:10349000C760E0060AD52946084878446838AFF383
:1034A0000080051EB5D0FEF753FD0561214630466C
:1034B000BDE8F04128E7ACE743000000AA74000033
:1034C00070B516460C460546FDF71EFD036893F8D9
:1034D0000101012804D0185D68B101202C8070BD65
:1034E000D3F803013246214603F20313034428466E
:1034F000BDE8704018474FF0FF3070BD70B51646FC
:103500000C460546FDF700FD036893F8010101280C
:1035100006D0FF2C0FD8185D68B101202C7070BD4B
:10352000D3F807013246214603F207130344284625
:10353000BDE8704018474FF0FF3070BD2DE9F041F5
:103540000646FEF70AFD8046454613E016B1E068E0
:10355000B0420ED120682860D4E90101D8F800708B
:1035600088472046FDF774FBD8F80000B842EBD13D
:1035700000E025462C68002CE8D1BDE8F081002849
:1035800001D0FDF791BC704710B5002102A000F0FA
:10359000CDFA012010BD0000534947414252543A30
:1035A0002041626E6F726D616C207465726D696E20
:1035B0006174696F6E00000010B500F0D1FABDE8CB
:1035C0001040FFF7DCBF10B500F0E4FABDE8104092
:1035D000FFF7D5BF00DE2DE9F04117460E46054640
:1035E00033B107FB0354E41B2046B047A542FAD190
:1035F000A5F10800BDE8F08110B5FDF78DFC00686D
:10360000BDE8104000F0F5BA2DE9F0411F46044630
:1036100003260168072A01F4006004DB08B116A53F
:1036200005E016A503E008B115A500E015A521F0F9
:1036300010002060A069C01EA0610FB1401EA061F3
:103640002046FDF7C3FC4FB1D4E90121384690472D
:10365000206A401C2062C01C206206E0206AFAE753
:10366000D4E9012115F8010B9047761EF8D22046C7
:10367000FDF7C2FCBDE8F0814E414E006E616E0068
:10368000494E4600696E66002DE9F04781461646B0
:103690008AB0354878440DC88DE80D00324878442A
:1036A000801C03AC0DC884E80D0041F69B30084433
:1036B000372190FBF1F290FBF1F5A5F1800501FBBC
:1036C00012041B3C02D56442012000E00020DFF818
:1036D00098A080460027FA44AAF1BE0A0EE0E0074F
:1036E0000AD03246684607EB470101230AEB810105
:1036F00001F016F88DE8070064107F1C002CEED155
:10370000194F7F44AE3F19E0E80715D007EB0410CE
:103710000DF1180A90E80E008AE80E00C068F04229
:1037200001D1981908903246012306A903A800F098
:10373000F7FF03AB83E807006D10641C002DE3D195
:103740004FF0010332466946B8F1000F03A802D0DA
:1037500000F0BCFF01E000F0E3FFC9E90001C9F897
:1037600008200AB0BDE8F087306D00002DE9F04771
:1037700005460C46C86820F4201040F48000C8605C
:10378000800602D5084600F0B0F9E06841F28201F7
:103790004FF0FF390140022903D0204600F04EF9D6
:1037A000B5E000F42041B1F5004F0FD1C00306D5BC
:1037B0006168E06A884200D80846606006E02069D7
:1037C000E06260606069FEF7BCFBA061A068002257
:1037D000EEB200280DDAE1688B050AD4C043A06080
:1037E00041F490302260E0606068411C61600670C6
:1037F000A5E0E0689046226040F40050E060206957
:1038000068BB6069FEF78FFB012704F12405A0B1B6
:10381000A08910F4407F08D0E069FDF7DEF920614F
:1038200018B1E06840F4006016E0E7612561E068E7
:1038300020F4407040F480600EE0E069FDF7CDF9BF
:1038400000282061F1D0E06840F4006010F4407F6F
:10385000E06002D140F48070E06020696060E06860
:1038600025696FF0010AC1051FD56168E06A8842C9
:1038700000D80846411B04D02246284600F0E8F84C
:10388000F0BBE068010203D5E562C4E9015854E0E9
:10389000691CE1626160E16940F48030491EC4E95D
:1038A000021030462E70BDE8F087010202D500F408
:1038B00080320AE06068411C61600670E0680A2E90
:1038C00040F48030E06006D00022E16A6068814206
:1038D00003D90B4602E00122F7E70346A7895B1BE9
:1038E0007F0503D4E7699F4200DDE2B1814200D841
:1038F0000146E5620F1AC4E90158002B09DD00E01A
:1039000005E022461946284600F0A2F808B14846CC
:10391000C9E747B1A069E5626560C01BA061E068C6
:1039200040F01000E060E068000208D56168A0691E
:10393000E562491B08446560A0615046B3E7304624
:10394000B1E700002DE9F041044616460D464769EF
:10395000007B80072ED03846FEF7E5FA50BB3EB319
:10396000012E02D0022E25D104E0204600F09CFB5F
:1039700005441DE03846FEF7E4FAE168002841F00E
:103980001001E16005DA204600F058F80120BDE89A
:10399000F081C9030BD56268E16A914200D81146F3
:1039A000A26911442269891A814200DD0846054452
:1039B000002D01DA0220EAE7E16A6068E2688142EC
:1039C00006D29103E06203D522F4003141F01002E7
:1039D000A6690027AE4213DCE16A814201D90B4699
:1039E00000E0034603EB060C2369ACEB030CAC458B
:1039F00006DD814201D98C4600E084469C4505D114
:103A0000A760276042F02000A5620DE0AD1BE669CB
:103A1000AE1B8142A66000D90846C01A281A206051
:103A20005819606022F0200003490840E06000203F
:103A300084F84870ABE70000BFCFD7FFC16821F41E
:103A4000001141F08001C160002181600160704778
:103A50002DE9F047814614460E464FF0FF383248B4
:103A6000D5685769054209D03846A169FEF761FA61
:103A7000002811DB2C48C0430540E5602B46324648
:103A800049463846FEF740FAA16920F00042B21AD2
:103A900011440028A16103D02046FFF7CFFF404624
:103AA000BDE8F08770B504460569C06A6168884260
:103AB00000D80846E16821F42011E160C90312D55D
:103AC000A84208D02246411B2846FFF7C1FF10B18B
:103AD0004FF0FF3070BD0020E562C4E90150E0689E
:103AE00020F48030E060002070BD10B50446C0684E
:103AF00020F02000E060A16AA06988420DD0204635
:103B0000FFF7D0FFE06820F4405040F01000E06084
:103B1000A06AA0612069E062606044F24001E06850
:103B20008843E06010BD00001000020070B505463B
:103B30000C460A2000E06D1C00F054F835B12878DE
:103B40000028F8D102E0641C00F04CF814B1207891
:103B50000028F8D1BDE870400A2000F043B800000A
:103B600010B5014602A0FFF7E1FF012010BD0000E3
:103B700053494752545245443A205265646972652C
:103B800063743A2063616E2774206F70656E3A200B
:103B90000000000010B5012805D0002103A0FFF7A8
:103BA000C5FF012010BD09A1F8E7000053494752A5
:103BB000544D454D3A204F7574206F6620686561FD
:103BC00070206D656D6F7279000000003A204865C5
:103BD0006170206D656D6F727920636F72727570A0
:103BE0007465640008B569468DF800000320ABBE1B
:103BF00008BD10B50C3002F0D1FB10BD10B5FEF7BA
:103C0000B1F9006810BD10B50446FEF7ABF90460C9
:103C100010BD00002DE9F04114460D46074601F1A4
:103C20004C06304602F0AFFB094B7B442246294646
:103C30003846FDF782FA0446287B000601D54FF08E
:103C4000FF34304602F0C1FB2046BDE8F0810000A1
:103C5000B72700002DE9FF4F1F464FF03C0987B002
:103C60004FF00042DDE9141001F10108DDF858A021
:103C700002EA405003900020059083460546044622
:103C80000490B969461E08988847AAF1010A029073
:103C9000BAF1000F3BDD02982E2815D01021FEF757
:103CA000E3FD00282EDB4FF0010B0599014317D0EF
:103CB000B9F1000F0BDB4A46C11700F024FA0543A7
:103CC0000C43A9F1040905E0012004900BE008B1C0
:103CD00045F0010501200590049820B9361D02E049
:103CE000049800B1361FB969089808F1010888479F
:103CF000BBF1000FAAF1010A0290C9D00999C1F8DD
:103D00000080C5E70298702808D0502806D0F969CD
:103D100008988847BBF1000F14D04FE000200290B4
:103D20000120BBF1000F049009D0B969089808F18F
:103D300001088847AAF10109B9F1000F07DCF96908
:103D4000089888476FF001000BB0BDE8F08F2B2872
:103D500004D02D280CD14FF0FF300490B969089899
:103D600008F101088847A9F10109B9F1000FE6DD62
:103D7000411CE4D00A21FEF777FD0028DFDB029921
:103D800008F1010801EB810100EB41000290B969E3
:103D9000089888470A21FEF767FD099AA9F10109E9
:103DA000B9F1000FC2F8008001DD0028E7DAF969F7
:103DB000089888470499029800FB016655EA0400B8
:103DC00004D004F04041090002D006E0039898E0D6
:103DD000A40044EA9574AD00B61E04F0004108004A
:103DE00002D16D196441761E159810F0240F03D08E
:103DF0004FF00B095C4803E04FF028096FF07D009D
:103E00008246564507DAAAEB06018944B9F1410F0B
:103E100001DD4FF0410901200021A9F1010200F06C
:103E200072F9024628400B462140084301D0012187
:103E300000E00021501E029143F1FF312840214053
:103E4000084301D0012000E000200299834651EA96
:103E50000B014FD0002108464FF00000039900F4F9
:103E6000400039B100EB80004FF4400100EBD0700E
:103E700001EA60008015012802DD4FF0FF3000E00C
:103E800013D0401C36D0029860B3BBF1000F0CD1A8
:103E90004A460120002100F036F92840214008431D
:103EA00001D0012000E00020E0B101204A460021BD
:103EB00000F029F9034640190A4661412D1A8C4148
:103EC00011D3B9F1400F09DD159810F0240F02D07D
:103ED000AAF1340603E0AAF1170600E0761C0025DB
:103EE0004FF0004406E05B1E42F1FF3220EA03057A
:103EF00021EA0204CAF10100B04206DA1B49039824
:103F000008430190002000900EE0039AC4F3D321EF
:103F1000E80A0A43164940EA44500A433146CDE9CB
:103F20000002684602F0F2F9159810F0240F0BD049
:103F30001598C00715D13868DDE90012031D3B60F4
:103F40000068C0E900120CE002A8694602F0A8F976
:103F50001598C00705D13868029A011D39600068BC
:103F600002604046F0E6000002FCFFFF0000F07F28
:103F70000000F03F2DE9FF4F92461D4685B04FF0FF
:103F80000041DDE9124BDDE914727F1E01EA4B505E
:103F9000414940F0FF4940EA0108002122F0200099
:103FA0004928049102D04E2828D04CE03BA001269D
:103FB00007C88DE80700A9690698641C88477F1E1A
:103FC000014606D41DF8060018B121F020018142F7
:103FD0000BD0E96906988847032E34D0082E32D0DA
:103FE0006FF0010009B0BDE8F08F761C032E01D000
:103FF000082EE0D1601CCAF80000DCE7A969069829
:10400000641C88477F1E2AD420F02000412826D136
:10401000A9690698641C88477F1E20D420F02000E0
:104020004E281CD1A9690698641C88477F1E48F455
:10403000002849F48009CAF8004001D4282806D095
:10404000E969069888475FEACB7012D022E0A96937
:104050000698641C88477F1E01D4002803DAE969AA
:1040600006988847BCE72928F1D1641CCAF80040AB
:10407000E9E71BF0240F07D028680499031D2B6083
:104080000068C0E9001805E02868021D2A60006881
:10409000C0F800902046A5E70000F07F494E464951
:1040A0004E4954590000000010B50146C2689007FF
:1040B00003D0900607D5886A0AE0FDF753FF012177
:1040C0000160881E10BD8B69486818440B69C01ACE
:1040D00091F848301BB191F84910401A10BD1103F6
:1040E000FCD50028FADD401E10BD2DE9F041164632
:1040F0001F460C46851B02E02846B847AD1B641ED0
:10410000FAD2BDE8F081B2F120030AD5C2F1200352
:1041100001FA02F120FA03F300FA02F041EA030186
:10412000704700FA03F14FF00000704770B5064C7D
:104130007C44064D7D4403E0206820448047241DD4
:10414000AC42F9D170BD0000CC670000D46700001C
:104150005FEA400C08BF91F0000F4FEA8C234FEA52
:10416000C12243EA51514FEA1C5018BF00F5F040FC
:104170004FEA300018BF41F000415FEA6C5C00F08C
:104180002980BCF1FF3F08BF40F080407047130C0E
:1041900006BF12044FF0100C4FF0000C130E04BFBA
:1041A00012020CF1080C130F04BF12010CF1040CE5
:1041B000930F04BF92000CF1020CD30F04BF520006
:1041C0000CF1010C11464FF00002A0F11F00A0EB12
:1041D0000C00704711F0004F08BF704731F00041EC
:1041E0003FF4D5AF0B0C06BF09044FF0100C4FF095
:1041F000000C0B0E04BF09020CF1080C0B0F04BFDE
:1042000009010CF1040C8B0F04BF89000CF1020CA6
:10421000CB0F04BF49000CF1010CCCF12003A0EB43
:104220000C0022FA03F302FA0CF241EA030100F156
:104230000100704720F07F4C80EA030023F07F47A5
:10424000ACEB070303F57C5300F0004003F1FF03E0
:104250002DE980494FEA154B09B44FEA144325EA8A
:104260000B4E24EA03480FF2042606EB13274908F5
:104270003E785FEA320203FB0667C7F5000707FBDB
:1042800006F64FEA54374FEAD64606F1020607FB18
:10429000066CCCF1005C4FEA1C472CEA074C07FB8C
:1042A00006F40CFB06F504EB15464FEA961634BFF0
:1042B00000204FF000404FEAD13706FB07FC4FEAE1
:1042C0001C4C0CFB0BF7D21B03FB0CF761EB07013B
:1042D0000CFB0EF7B0EB074072EB17420CFB08F734
:1042E00034BFA2EB0742B2EB074261EB17414FEA42
:1042F0000C444FEA910706FB07FC4FEA1C4C0CFBF1
:104300000BF7B0EBC74072EB573203FB0CF734BF2F
:10431000A2EBC742B2EBC74261EB57310CFB0EF781
:10432000B0EBC70072EB57720CFB08F734BFA2EB7F
:10433000C702B2EBC70261EB5771039F4FEA81617D
:1043400041EA921104EBCC044FEAD1374FEA826282
:1043500006FB07FC42EA90124FEA80604FEA1C4CD1
:104360000CFB0BF7D21B03FB0CF761EB07010CFBFB
:104370000EF7B0EB074072EB17420CFB08F734BFA7
:10438000A2EB0742B2EB074261EB17414FEA8C55B3
:104390004FEA910704EB9C2406FB07FC4FEA1C4CF8
:1043A0000CFB0BF7B0EBC74072EB573203FB0CF77B
:1043B00034BFA2EBC742B2EBC74261EB57310CFBF3
:1043C0000EF7B0EBC70072EB57720CFB08F734BF67
:1043D000A2EBC702B2EBC70261EB577115EB4C259C
:1043E0004FEA816141EA92114FEA82624FEAD13786
:1043F00042EA901206FB07FC44F100044FEA806099
:104400004FEA1C4C0CFB0BF7D21B03FB0CF761EBC8
:1044100007010CFB0EF7B0EB074072EB17420CFBE9
:1044200008F734BFA2EB0742B2EB074261EB17413A
:1044300015EB1C154FEA813141EA92414FEA823275
:1044400042EA90424FEA80304FEA0C7644F1000491
:1044500048EA03434EEA0B484FF0000EB2EB080C5B
:1044600071EB030724BF624639464EEB0E0E4FF048
:10447000000B0018524149414BEB0B0BB2EB080CFF
:1044800071EB03077BF1000B24BF624639464EEB0C
:104490000E0E4FF0000B0018524149414BEB0B0B35
:1044A000B2EB080C71EB03077BF1000B24BF6246F3
:1044B00039464EEB0E0E51EA020718BF46F00106D0
:1044C00016EB0E7655F1000254F1000103D5BDE85C
:1044D0008901BDE80088BDE88901BDE80048B6193A
:1044E000524141EB0101A3F10103704780807F7EBF
:1044F0007D7C7B7A7978777676757473727171705A
:104500006F6E6E6D6C6C6B6A6A696868676666650B
:104510006464636362616160605F5F5E5E5D5D5C99
:104520005C5B5B5A5A59595858575756565555550A
:104530005454535352525251515050504F4F4F4E6A
:104540004E4D4D4D4C4C4C4B4B4B4A4A4A494949B8
:1045500048484847474747464646454545444444FA
:1045600044434343434242424241414146EA0646B4
:10457000A3F570534FEA164646EA42564FEAD22256
:1045800042EA415210B54FEAD121A3F1010300F0F4
:104590002FF820F0004000F1020C00F0004701EB82
:1045A00000501146BCF5006F40EA070000D210BD74
:1045B000BAF1000F0AD01CB503B44FF004004FF05D
:1045C00004014FF000000FBCBDE810404FF00001A7
:1045D000BBF1010FB9BF04484FF0FF310348002180
:1045E00040EA070010BD00BFFFFFEF7F0000F07F33
:1045F000002B9C4630D477002BD01CB54FEA3707F0
:1046000003B44FF010004FF01001BAF1000F06D0C4
:10461000BCF1000FDCBF40F0080040F008014FF093
:1046200000000FBCBDE810400BF1010BBBF1010F06
:1046300008BF5FEA170722BF12F1010211F1010161
:104640004FF0004143F1000300F0004043EA000056
:104650007047F9D35708D0E746EA064613F1400FF2
:104660004FEA16461FDD13F1200FDFBF16430A463F
:10467000002120335B42BED0C3F1200746EA064644
:1046800002FA07F74FEA164646EA0706C3F1200783
:1046900022FA03F201FA07F721FA03F14FF00003BF
:1046A00042EA0702A7E746EA020646EA06464FEA5A
:1046B000164646EA0106BCBF46EA0646360C4FF0EF
:1046C00000034FF000024FF0000194E72DE9804C09
:1046D0009A46934670B491E8380007C831EA400C16
:1046E00048BF34EA430C03D5FFF7A4FDFFF780FF72
:1046F000F0BCBDE8008C2DE9804C9A46934670B41E
:1047000091E8380007C831EA400C48BF34EA430C4E
:1047100003D5FFF78FFDFFF729FFF0BCBDE8008C44
:104720002DE9804C9A46934670B491E8380007C84A
:1047300010F0804F08BF13F0804F03D100F01AF83B
:10474000FFF756FFF0BCBDE8008C2DE9804C9A467F
:10475000934670B491E8380007C810F0804F08BF46
:1047600013F0804F03D100F005F8FFF7FFFEF0BC17
:10477000BDE8008C20F07F4780EA030023F07F4CE7
:1047800007EB0C03A3F57C5300F00040A3F1FE03FC
:1047900092F0000F00F0B38095F0000F00F07780EA
:1047A0002DE901494FEA11404FEA144621EA004839
:1047B00000FB06FC24EA064708FB06F607FB08F8A0
:1047C00000FB07F718EB06484CEB164C4FEA124B70
:1047D00018EB07484FEA15464CEB174022EA0B4E00
:1047E0000BFB06FC25EA06470EFB06F607FB0EFE52
:1047F0000BFB07F71EEB064E4CEB164C4FF000067A
:104800001EEB074E4CEB174B18EB0B0840F100006A
:1048100018EB0E0B58EB000840F100008F1A4FF018
:1048200000013CBFC943661B14BFB5EB040C00215B
:104830003CBFC943F61B4FEA17444EEA8E0E27EAE7
:1048400004454FEA1C4704FB07622CEA074C05FBB2
:1048500007F70CFB05F604FB0CFC16EB074642EBD6
:10486000174216EB0C4642EB1C421BEB060658EBBC
:104870000202414146EA9E0601D5BDE80189B6190A
:10488000524141EB0101A3F10103BDE801894FEA67
:1048900014454FEA114724EA054621EA074C05FB77
:1048A00007F406FB07F70CFB06F105FB0CFC11EB0C
:1048B000074144EB17444FEA124711EB0C4144EB1C
:1048C0001C4422EA074C05FB07F206FB07F70CFB2A
:1048D00006F605FB0CFC16EB074642EB174216EBFF
:1048E0000C4642EB1C456A1854F1000148BF704762
:1048F000B619524141EB0101A3F10103704795F054
:10490000000F37D04FEA11424FEA144721EA02461E
:1049100024EA074C02FB07F106FB07F70CFB06F441
:1049200002FB0CFC14EB074441EB17414FEA15471F
:1049300014EB0C4441EB1C4125EA074C02FB07F544
:1049400006FB07F70CFB06F602FB0CFC16EB074612
:1049500045EB174516EB0C4645EB1C42121951F17D
:10496000000148BF7047B619524141EB0101A3F164
:10497000010370474FEA14454FEA114724EA054600
:1049800021EA074C05FB07F106FB07F70CFB06F2D3
:104990004FF0000605FB0CFC12EB074241EB174100
:1049A00012EB0C4251EB1C4148BF7047921841EB8F
:1049B0000101A3F10103704738B504466846AFF31F
:1049C00000800146204605F00FF838BD00BFFEE725
:1049D000704770477047704770477047704770471F
:1049E000704770477047704770477047704770470F
:1049F00070477047704770477047704770477047FF
:104A000070477047704770477047704770477047EE
:104A100070477047704770477047704770477047DE
:104A200070477047704770477047704770477047CE
:104A300070477047704770477047704770477047BE
:104A4000704770477047F0B50A46002100230024E4
:104A500000BF3DE0012505FA01F3156805EA0304EE
:104A60009C4234D105684F000326BE40B543056023
:104A700015794E00B5400668354305601579012D5E
:104A800002D01579022D16D185684F000326BE404D
:104A9000B543856055794E00B540866835438560DD
:104AA000456801268E40B5434560456896798E403D
:104AB000B6B235434560C5684F000326BE40B543D6
:104AC000C560D5794E00B540C6683543C560491C00
:104AD0001029BFD3F0BD418370470183704700BFE9
:104AE000FEE700BFEFF3108018B900BFEFF31180AD
:104AF00008B1012070470020FCE700BFEFF31080F1
:104B000018B900BFEFF3118008B1012070470020F1
:104B1000FCE700BFEFF3108018B900BFEFF311807E
:104B200008B1012070470020FCE700BFEFF31080C0
:104B300018B900BFEFF3118008B1012070470020C1
:104B4000FCE700BFEFF3108018B900BFEFF311804E
:104B500008B1012070470020FCE700BFEFF305809B
:104B600008B1012070470020FCE700BFEFF305808B
:104B700008B1012070470020FCE700BFEFF305807B
:104B800008B1012070470020FCE700BFEFF305806B
:104B900008B1012070470020FCE700BFEFF305805B
:104BA00008B1012070470020FCE700BFEFF314803C
:104BB00000F0010080F00100704710B50246531864
:104BC000184610BD00BFFEE72DE9F041054605F18E
:104BD0002800FBF7B4FC074667B1EC6A07E0012147
:104BE000A01CFBF73DFC064606B902E0A468002CB9
:104BF000F5D100E000242046BDE8F0812DE9F04128
:104C000005460C46286BA0B12E6B002701E0374605
:104C100076681EB1F078E1788842F8DB6660A760BC
:104C20000EB1B46000E0EC620FB17C6006E02C6372
:104C300004E000206060A060EC622C6305F12800B5
:104C4000FBF74FFCBDE8F0814A681AB1D1E90132A7
:104C50009A6001E08A68C2628A681AB1D1E90123C8
:104C60005A6001E04A680263704770474FF0E020E5
:104C7000006970470948007830B100200749087082
:104C80004FF08060064908604FF0E020006940F076
:104C900001004FF0E0210861704700005915002025
:104CA00004ED00E04FF0FF307047000010B5024601
:104CB0000B4612B94FF0FF3010BD0D480068B0FB35
:104CC000F2F0411EB1F1807F02D34FF0FF30F3E7E5
:104CD000FF240848C47206204FF0E02420612046DB
:104CE00041610020A061044C207000BFE4E7000097
:104CF0004015002018ED00E05915002029B1064AA2
:104D000012680243044B1A6004E0034A12688243AB
:104D1000014B1A6070470000303802400CB500208B
:104D2000019000903448006840F4803032490860B7
:104D300000BF3148006800F4003000900198401C2A
:104D40000190009818B90198B0F5A04FF1D12A4808
:104D5000006800F4003010B10120009001E0002054
:104D600000900098012846D123484030006840F068
:104D700080502149403108602048006840F440409C
:104D80001E4908601C48083000681B49083108604B
:104D90000846006840F4004008600846006840F497
:104DA000A05008601648091F0860081F006840F0FE
:104DB0008070091F086000BF0F48006800F0007095
:104DC0000028F9D040F205700E4908600A48083002
:104DD000006820F0030008490831086008460068B0
:104DE00040F00200086000BF03480830006800F08F
:104DF0000C000828F8D10CBD0038024000700040BB
:104E000019544007003C024070B5002000220223E4
:104E100000240221274D2D6805F00C0020B1042844
:104E200006D0082834D107E0234D244E356033E006
:104E3000234D224E35602FE01E4D2D1F2D68C5F3EA
:104E400080541C4D2D1F2D6805F03F0154B11C4DA1
:104E5000B5FBF1F5174E361F3668C6F3881605FB0D
:104E600006F209E0144DB5FBF1F5124E361F366817
:104E7000C6F3881605FB06F20E4D2D1F2D68C5F3EF
:104E800001456D1C6B00B2FBF3F50C4E356003E081
:104E9000094D0A4E356000BF00BF064D2D68C5F3B1
:104EA0000315084E705D054D2D68C540034E3560F5
:104EB00070BD0000083802400024F40040150020B6
:104EC00040787D014415002010B51548006840F475
:104ED0007000134908601348006840F00100114950
:104EE000086000200F49083108600E4800680E492C
:104EF00008400C4908600D48091D0860081F00683B
:104F000020F48020091F0860002006490C31086049
:104F1000FFF704FF4FF0006001498039086010BDC1
:104F200088ED00E000380240FFFFF6FE103000245C
:104F30002DE9F04107460E46154605F0020080B9FE
:104F400005F0010030B1314607F12800FBF7EDFB19
:104F5000044615E0314607F12800FBF7F9FB04464B
:104F60000EE0BC6A05F0010018B104EA0600B04288
:104F700005D105F0010018B904EA060000B90024C3
:104F80002046BDE8F081000030B5024600230D4CFC
:104F9000606C03E00469091B0346C06810B1046932
:104FA0008C42F7D911619360D06020B10469156912
:104FB000641B046182600BB1DA6001E0014C626441
:104FC00030BD0000B4150020C16811B1D0E9021253
:104FD0009160024AC168516470470000B415002016
:104FE00000BFFEE71CB501214020FFF787FE4020EF
:104FF000009001208DF8040003208DF805000120A9
:105000008DF806008DF8070069460448FFF71BFD80
:1050100040210248FFF75FFD1CBD00000018024060
:105020001FB51C4600F03CFA0449496804B020460C
:1050300010BDAFF30080AFF30080F7E7A8150020A4
:1050400013B50024012000F08BFF0446204600F039
:105050007FFF4FF0FF301CBDAFF30080AFF3008047
:10506000F4E700000DE040210648FFF736FD64201C
:1050700001F0E4FA40210348FFF72DFD642001F020
:10508000DDFAF0E7001802402DE9F0411F46904696
:105090000D00064601D00C4600E040241EB9204613
:1050A00000F05AFF06463B4642462146FBF7E4FD28
:1050B000002802DA0020307010E0844202DA00F1A9
:1050C000010402E00AD14FEA44041DB14FF0000090
:1050D000BDE8F081304600F037FFE0E73046F7E703
:1050E0002DE9FF4F484D002789B028689B4692461E
:1050F000002857D145A0002000BF040001D105F1D0
:105100000C0420463A21FBF71EFE68B13E4A00F827
:10511000017B121D40A1FBF7C9FD012802D168687F
:10512000002801DC012068603C49142089460846BB
:1051300000BF06001BD04FF40070C6E901073848D5
:10514000F760306006F1100807A8AFF30080024650
:10515000344904A804F02CFC0146404604F04CFC01
:10516000A0F1100604A804F066FC2F4830602B4E16
:1051700006A8AFF3008002462146684604F018FCFA
:10518000074601A800F074FE024630683946C3683D
:1051900030469847A86001A800F07AFE684604F0FF
:1051A0004AFC2C60AC68601C26D06F680DF10808C2
:1051B0001A4E554605A8AFF30080024615A103A874
:1051C00004F0F6FBCDE9005030683B462246056905
:1051D00031464046A84703A804F02DFC029A52F835
:1051E000040C60B1DDE909015B46FFF74DFF0446A1
:1051F00002A804F020FC20460DB0BDE8F08F02A804
:1052000004F019FC0020F7E75C15002052575354B6
:10521000444552520000000025640000681600203A
:10522000E8A30008A7A4000878A400080FB47FB57D
:10523000144D2A68002A04D00898032804DC0021B1
:1052400090477FBC5DF814FB09AE6946082008460C
:1052500000BF18B100F02AFC044600E000243246EA
:105260002046089900F0E0FB2068816820468847C6
:1052700001462A68089890472068016820468847B8
:10528000DFE70000A415002013B5002400F068FE3D
:10529000044614B90320FFF7C9FF20461CBDAFF335
:1052A0000080AFF30080F4E700F052BE70470000CA
:1052B0002DE9FC4707464FF00008C7F800809A46E2
:1052C000894600F10805C0F804801400464608D05D
:1052D000B4F1804F01D3AFF30080A00000F03CFE9A
:1052E00000E00020C5E9000403E02868641E40F8DF
:1052F0002460002CF9D1A5F10804C5F80880C5F890
:105300000C80C4E9068AB9F100000AD0FBF726FD3B
:10531000401C054600F020FE2A464946FCF781FD68
:10532000A061062701A8AFF300800146684604F09B
:105330005BFB82463946174B174A042000F08DFE6E
:1053400065688046062D00D33D46C146266806E0C6
:105350003146484604F09CFB09F10409361D2068DB
:1053600000EB8500B042F3D105E008EB8500514623
:105370006D1C04F08DFBBD42F7D306492068FBF796
:1053800057FDC4E90087684604F055FB2046BDE898
:10539000FC870000379A0008B949000810B5044698
:1053A000806900F0D1FD04F1080003F0A5F9083888
:1053B00003F0B0F910BD2DE9F04104460D46164644
:1053C000104600212260FCF7FDFC606048B1FBF74D
:1053D000C5FC401C00F0C0FD07466168FBF78FFC70
:1053E000676029463046FCF7EDFC2046BDE8F081B9
:1053F00010B54168044629B12068FCF7E3FC6068F9
:1054000000F0A2FD204610BD0C0008D00A460DA1F8
:105410001048FBF727FC204600F096FD09E050B14C
:1054200001280AD002280AD00BA206A10948FBF7DE
:1054300019FCFBF759FC0AA2F7E70CA2F5E711A249
:10544000F3E70000457863657074696F6E3A202554
:10545000732E0A0028170020756E6B6E6F776E2012
:10546000657863657074696F6E000000756E6578AD
:1054700070656374656420657863657074696F6EC8
:10548000000000006261645F616C6C6F633A206FC2
:105490007574206F66206D656D6F72790000000075
:1054A00010B50A4904460020D1E9003200E0401C52
:1054B000824204D953F8201009B1A142F7D153F820
:1054C0002010002900D1104610BD0000A8150020B2
:1054D0002DE9F04F87B004460F469046994605A83F
:1054E00000BF05462A4606A904F1080004F0EFFAB9
:1054F000A0F108044A464146384601F0E1FF206029
:10550000676004F108060DF10C0A01AD4FF0000BC5
:1055100020682860C5F804B000BF00BF2A463146A5
:10552000504603F04AFE00BF03A9684602F0FEFFA2
:1055300000BF009800F1100100BF00BF4C60204682
:1055400007B0BDE8F08FFEB50646306801F0DEFF1B
:1055500006F108052C462069B0B12146684603F0E3
:10556000A9FA214601A803F0AEFA6B4601AA21462A
:1055700002A803F0BEFD00222046216903F044F991
:10558000204603F074FA00BF00BFA4F108063046BD
:10559000FEBD406870472DE9FC410D461746016885
:1055A0004FF0FF3406226846FFF705FF21462868C2
:1055B000FFF746FD0646401C12D000F0A7FC05464A
:1055C000D5E9004104EBC100A0420FD12846491C97
:1055D00003F0AAF8D5E9000100EBC104083C0AE099
:1055E0006846FFF705FF2046BDE8FC812268521C93
:1055F00001D00834E8E73946201D266000F058FC49
:105600002868201AC410EBE710B50C4600F07EFCA9
:105610004168A14204DD006800EBC400001D10BD1C
:10562000BDE8104000F0ECBBF8B51C4615460E4630
:1056300000F06CFC4168B1420EDD006850F83600A5
:10564000411C09D0002100916B4622462946FFF7F4
:10565000E7FC6946884200D10020F8BD406930F877
:105660001200084000D00120704700002DE9F84FDB
:105670000646006889461D464169DDF828B0924615
:10568000294201D0002406E000693749284201D0B0
:10569000CC6800E08C684FF0000884B1D9F8007045
:1056A000E068B84207D86A46791C04F10800CDF8D2
:1056B000008002F0F6FFA06850F82770F7BBBAF13F
:1056C000000F02D10420FFF7B1FD84B1D9F80070BA
:1056D000E068B84207D86A46791C04F10800CDF8A2
:1056E000008002F0DEFFA06850F8277037BB3268F8
:1056F00000231EA1506928420ED002231021002051
:105700000D4203D0116851F8201009E04900401CF7
:105710000628F5D3164903E01069284200D001237A
:10572000184600225B46984707463CB13068A042C5
:1057300012D02146684600F085FB00E00CE04A46A6
:105740003946684600F016F8CDF80080E069401E42
:10575000E061684600F09CFB4A463946304600F05E
:1057600009F83846BDE8F88F8815002000000000D1
:10577000A4A40008F8B50646087A15460C46C007EA
:105780000FD1286820B917490868401C08602860B4
:1057900020683146826820469047A06840F00100AA
:1057A000A06030682D68C068A84207D8002000902B
:1057B00030686A46691C083002F073FF3068806800
:1057C00050F8250030B1C168491EC16002D101689E
:1057D00049688847E068401CE0603068806840F8AD
:1057E0002540F8BD581600207CB5054608680C46D3
:1057F000806948B16846AFF300800246206881693D
:10580000284604F0D5F87CBD01A8AFF3008002461D
:1058100000A1F5E72A00000010B50446FBF78EF85A
:10582000204610BD7CB504462DA1FCF7FFFAE8B375
:105830002CA12046FCF7FAFAC0B34FF4007000F038
:105840008BFB0546022221466846FFF7B4FD002483
:10585000FBF75AFB06464FF4807330680021005D69
:1058600010F0010F00D0012110F03E0F01D041F0E7
:10587000020110F0400F01D041F0040110F0100FB0
:1058800001D041F0080110F0080F01D041F01001E3
:1058900010F0980F01D041F0200120281DD00022E7
:1058A0000AB141F0400110F0020F00E013E001D016
:1058B00041F0800180EA800010F0800F01D041F4B7
:1058C000807125F81410641C9C42C6D16846FFF70D
:1058D0008FFD28467CBD05487CBD0122E0E7000025
:1058E00043000000504F534958000000D8A0000862
:1058F0002DE9FC41064615460C460846FFF792FF87
:1059000001462B460022304600F086F93E490160F0
:10591000064640693D49884273D001203076022214
:1059200021466846FFF747FD0024FF25E2B210211B
:105930003046FFF793FE38B909E0EAB2102130464D
:10594000FFF78CFE30B96D1EA542F6D802E0641C4C
:10595000AC42EBD3C6E90745F76A18E0A4F1610051
:10596000192810D8E2B210213046FFF777FE50B167
:10597000A4F1200808F0FF0208213046FFF76EFE70
:1059800008B1404600E0204607F8010B641CAC4219
:10599000E4D90024FF25E2B208213046FFF75EFE7D
:1059A00038B909E0EAB208213046FFF757FE30B9AE
:1059B0006D1EA542F6D802E0641CAC42EBD3C6E9EA
:1059C0000945376B18E0A4F14100192810D8E2B25C
:1059D00008213046FFF742FE50B104F1200808F0DC
:1059E000FF0210213046FFF739FE08B1404600E0C3
:1059F000204607F8010B641CAC42E4D96846FFF767
:105A0000F7FC3046BDE8FC81FCA30008D8A00008E4
:105A100010B500F004F8BDE8104000F099BA10B5D8
:105A200000F08EF910BD0000F7B5174600241346AC
:105A30000D4606460A4621462046FFF751FB040064
:105A40000DD1002D01DB172D00D3002516480021B4
:105A50003B4650F825200846FFF716FB04467068C1
:105A6000B8B1FBF77BF905462046FBF777F92844E8
:105A7000401C00F071FA7168FBF741F92146FBF711
:105A80008CF90546706800F05FFA204600F05CFA79
:105A90002C4674603046FEBDAFF30080204600F017
:105AA00053FAAFF30080F5E77CA0000810B500F0D2
:105AB00027FA024901600021416010BD30A40008AE
:105AC00010B5044604482060606800F03DFA2046A6
:105AD000AFF3008010BD000030A4000810B503F043
